:100000006F00005B000000004A0100004C0100008E
:1000100000000000000000000000000000000000E0
:1000200000000000000000000000000000000000D0
:10003000AE05000000000000AE050000000000005A
:10004000AE050000AE050000AE050000AE050000E4
:10005000AE050000AE050000AE050000AE050000D4
:10006000AE050000AE050000AE050000AE050000C4
:10007000AE050000AE050000AE050000AE050000B4
:10008000AE050000AE050000AE050000AE050000A4
:10009000AE050000AE0500004E01000000000000AB
:1000A000511126C022C206C4828282441244A24058
:1000B000310182802A86014593F6150091C232955E
:1000C00085810606F5F9828000000000634E050276
:1000D00063C305042E86AA857D5515C285466378BF
:1000E000B6006356C00006068606E36CB6FE014500
:1000F00063E4C500918D558D85820582F5FA828075
:100100008682C93F2E8582823305A04063D70500D1
:10011000B305B040C1B7B305B0408682653F330533
:10012000A0408282868263C70500634905005D376F
:100130002E858282B305B040E35B05FE3305A04007
:10014000513F3305B0408282000001A001A08545E7
:1001500037050040EF00C06985476316F502854505
:1001600037050040EF00406AB707002003C787014A
:100170009387870119CB014701469305000837157E
:10018000014098A32D2B7300203005470546F5B795
:10019000EFF21FF131112E84AA8485450545752B98
:1001A0002C00370500406486608423150100231766
:1001B0000100D92305468545370500400D259307E5
:1001C00060527C8095475C810A8585473EC2112339
:1001D000854537050040C52B5101C1BDEFF25FECED
:1001E000411185451305000202C202C402C6B923AB
:1001F00085454145A1238D449307000841444C00A7
:10020000371501407C8222C626C43D2122C6371400
:10021000014011474C001305044078823AC026C4BF
:100220002129A1477C824C00C147130504403EC6EA
:1002300026C41921C1477C824C00C14713050440E4
:100240003EC626C4D52E930700027C824C00C147CF
:10025000130504403EC626C4C52685477C824C0053
:1002600093078004371501403EC626C4F12689460F
:10027000930780044C003715014074823EC626C4A3
:10028000652E0247930780044C00371501407882A1
:100290003EC626C455261305044001469145052156
:1002A000130504400146A1451929130504400146E0
:1002B000C145312101469305000213050440012187
:1002C0004101E5B3EFF2DFDD7111A3010100B704D5
:1002D0000020854537150140F12E21C99C8193F7F7
:1002E000F70FB1C33714014001469305000213050F
:1002F0000440A3010100E1260146C1451305044065
:10030000B70400206D2E938494018820352B01467C
:10031000A14513050440652688203D2301469145EB
:1003200013050440692E110149B337140140854774
:100330000546914513050440DC81512693879401BD
:10034000882319230546A145130504408D2EB707C0
:100350000020938797018823C5291305044005468B
:10036000C145B12E05469305000213050440812EB8
:100370008DB7EFF2FFD27111A3010100854537154A
:1003800001400D2E31C99C8193F7F70FA1C7B71417
:1003900001400146C1451385044037040020130481
:1003A0009401A3010100212E082079290146A145CD
:1003B00013850440292608204129014691451385CB
:1003C0000440F52C082049210546930500021385B9
:1003D0000440F5241101D1B9371401408547014685
:1003E0009305000213050440DC81D12CB7070020DF
:1003F0009384970188208929054691451305044077
:100400007D2C882091210546A14513050440452CEB
:1004100088201D290546C145130504404D24B9BF58
:10042000EFF21FC805454D24392AED26453B996555
:100430009385F5DB1305703EA13B37040020914501
:1004400037150140852C930794013D4719E11307A7
:10045000D00289453715014098A3A92C19C19D35B3
:10046000F9BF013FE9BFEFF2BFC3371402401C40A0
:100470003707FFF8414593E717001CC05C40F98F30
:100480005CC01C403707F7FE7D17F98F1CC01C406D
:100490003707FCFF7D17F98F1CC05C4041777D1743
:1004A000F98F5CC0B7079F001CC441241C4C93E724
:1004B00007021CCCB717014003A7074093860740EB
:1004C0001377F7F023A0E74003A707401367070857
:1004D00023A0E74089479CCAB7F7FF1F03C5477DA4
:1004E0009307F00F6304F5007D898124B72702404C
:1004F0009843C176FD16719B98C398431367170004
:1005000098C3B7170240D843D8C3D843758FD8C310
:10051000D843B7060001D8C39843558F98C3984372
:1005200093166700E3DD06FED843B7160240719BC1
:10053000D8C3D84313672700D8C32147DC42B18B07
:10054000E39EE7FE9DB6EFF2BFB5371702405C436E
:10055000370400209146B18B130404016385D70052
:10056000A1466380D704B7376E01938707601CC02C
:10057000B7160240DC420840918313F7F700B70733
:10058000002093870700BA978C23DC4293F5F50F80
:1005900093F707083357B50099E32D3E2A8718C013
:1005A00029B65C43B777DC02938707C0C9B701A0BF
:1005B0009701002093818126138181FE1705000099
:1005C0001305852C970500209385C5A317060020E9
:1005D0001306C6A463FAC5008322050023A05500B4
:1005E00011059105E3EAC5FE17050020130505A3D3
:1005F0009385C1806377B500232005001105E36D65
:10060000B5FEB722000093820288739002308D42BB
:1006100073904280970200009382C29E93E2320060
:1006200073905230EFF03FE497020000938282DF34
:100630007390123473002030944593F7060193F2BF
:10064000F60081C7DC41B3E2F20083D3050093F7E3
:10065000F30FA5C303230500611122C226C0814701
:10066000130480029304800405473316F70033F720
:10067000C3006312E602939527003D473317B70086
:100680001347F7FF33736700B395B20033E3650098
:10069000639D860050C985072147E397E7FC124414
:1006A00023206500824421018280E39696FE10C9D2
:1006B000DDB7828008456D8D3335A000828019C278
:1006C0000CC982804CC98280B707002023AEA700E6
:1006D0008280B707002083A6C70185471821639051
:1006E000F6021C31639CD7023C219A0793E707F876
:1006F000B7E600E093F7F70FBA962380F6408546F9
:10070000935757003397E600544189CE93870704E7
:100710008A07B7E600E0B69798C38280EDF33C21E4
:100720009A07F9B793870706E5B7371702401C43C6
:100730000E0593F777F05D8D08C3828099C5371752
:1007400002401C4F5D8D08CF8280B7170240984F42
:100750001345F5FF798D88CF828099C53717024000
:100760005C4F5D8D48CF8280B7170240D84F13454C
:10077000F5FF798DC8CF82801E21373701401307DE
:1007800007C0C207C1836306E50037070040631650
:10079000E500BA2193F7F7F8D98FFA2193F7F7CF4D
:1007A000C207C183D98F1EA1DE215EB59E211EB571
:1007B000B7370140938707C06314F5009C251EB925
:1007C00085475EA982801E2189C593E717001EA177
:1007D0008280C207C183F99BC207C183CDBF5E255A
:1007E00001C6DD8D4EA5828093C5F5FFFD8DDDBF71
:1007F0001E294A25ED8F4205418189C76D8D33350C
:10080000A00082800145828093C5F5FFC205C181A9
:100810000EA98280EFF2DF88B707002003A5070149
:10082000B7157A0093850520EFF0DF8A1375F50F71
:100830002385A18093175500898F8A073E950E0561
:100840002394A1806FF07F86EFF29F8537F400E05C
:100850005C40AA85F99B5CC003D58180EFF09F8541
:1008600008C8232404001C4093E717001CC0B7F7F6
:1008700000E0D843058B75DF9843799B98C36FF0F0
:04088000DF82000013
:10088400010203040506070801020304050607081C
:08089400006CDC020000000012
:00000001FF
