:100000006F00005D000000004A0100004C0100008C
:1000100000000000000000000000000000000000E0
:1000200000000000000000000000000000000000D0
:10003000CE05000000000000CE050000000000001A
:10004000CE050000CE050000CE050000CE05000064
:10005000CE050000CE050000CE050000CE05000054
:10006000CE050000CE050000CE050000CE05000044
:10007000CE050000CE050000CE050000CE05000034
:10008000CE050000CE050000CE050000CE05000024
:10009000CE050000CE0500004E010000000000006B
:1000A000511126C022C206C4828282441244A24058
:1000B000310182802A86014593F6150091C232955E
:1000C00085810606F5F9828000000000634E050276
:1000D00063C305042E86AA857D5515C285466378BF
:1000E000B6006356C00006068606E36CB6FE014500
:1000F00063E4C500918D558D85820582F5FA828075
:100100008682C93F2E8582823305A04063D70500D1
:10011000B305B040C1B7B305B0408682653F330533
:10012000A0408282868263C70500634905005D376F
:100130002E858282B305B040E35B05FE3305A04007
:10014000513F3305B0408282000001A001A08545E7
:1001500037050040EF00C06B85476316F502854503
:1001600037050040EF00406CB707002003C7870148
:100170009387870119CB014701469305000837157E
:10018000014098A3A92B7300203005470546F5B719
:10019000EFF21FF131112E84AA8485450545F12B1C
:1001A0002C00370500406486608423150100231766
:1001B0000100DD2305468545370500408925930765
:1001C00060527C8095475C810A8585473EC2152335
:1001D000854537050040012D5101C1BDEFF25FECAF
:1001E000411185451305000202C202C402C6BD23A7
:1001F00085454145A5238D449307000841444C00A3
:10020000371501407C8222C626C4B92122C6371484
:10021000014011474C001305044078823AC026C4BF
:100220002529A1477C824C00C147130504403EC6E6
:1002300026C41D21C1477C824C00C14713050440E0
:100240003EC626C41129930700027C824C00C14798
:10025000130504403EC626C4012185477C824C001C
:1002600093078004371501403EC626C4F52689460B
:10027000930780044C003715014074823EC626C4A3
:10028000E12E0247930780044C0037150140788225
:100290003EC626C4D126130504400146914581215E
:1002A000130504400146A1451D29130504400146DC
:1002B000C14535210146930500021305044005217F
:1002C0004101E5B3EFF2DFDD7111A3010100B704D5
:1002D0000020854537150140F52E21C99C8193F7F3
:1002E000F70FB1C33714014001469305000213050F
:1002F0000440A3010100E5260146C1451305044061
:10030000B7040020E92E938494018820B12B014684
:10031000A14513050440E1268820B92301469145F3
:10032000130504406D2E110149B337140140854770
:100330000546914513050440DC81552693879401B9
:1003400088231D230546A14513050440492EB70700
:100350000020938797018823012B1305044005464D
:10036000C145B52E05469305000213050440852EB0
:100370008DB7EFF2FFD27111A3010100854537154A
:100380000140892E31C99C8193F7F70FA1C7B7149B
:1003900001400146C1451385044037040020130481
:1003A0009401A3010100252E08207D290146A145C5
:1003B000138504402D2608204529014691451385C3
:1003C0000440312E08204D21054693050002138577
:1003D000044031261101D1B9371401408547014647
:1003E0009305000213050440DC81D52CB7070020DB
:1003F0009384970188208D29054691451305044073
:10040000F92C882095210546A14513050440C12CEF
:10041000882099290546C14513050440C924B9BF60
:10042000EFF21FC80545C9243D2A2921453B99659E
:100430009385F5DB1305703EA13B37040020914501
:1004400037150140412C930794013D4719E11307EB
:10045000D00289453715014098A3AD2C19C937152D
:100460000140014693050002130505408D2C993D7E
:10047000F9B73715014005469305000213050540FD
:10048000B92CC53D6DBFEFF2BFC1371402401C400F
:100490003707FFF8414593E717001CC05C40F98F10
:1004A0005CC01C403707F7FE7D17F98F1CC01C404D
:1004B0003707FCFF7D17F98F1CC05C4041777D1723
:1004C000F98F5CC0B7079F001CC441241C4C93E704
:1004D00007021CCCB717014003A7074093860740CB
:1004E0001377F7F023A0E74003A707401367070837
:1004F00023A0E74089479CCAB7F7FF1F03C5477D84
:100500009307F00F6304F5007D898124B72702402B
:100510009843C176FD16719B98C3984313671700E3
:1005200098C3B7170240D843D8C3D843758FD8C3F0
:10053000D843B7060001D8C39843558F98C3984352
:1005400093166700E3DD06FED843B7160240719BA1
:10055000D8C3D84313672700D8C32147DC42B18BE7
:10056000E39EE7FE99B6EFF2BFB3371702405C4354
:10057000370400209146B18B130404016385D70032
:10058000A1466380D704B7376E01938707601CC00C
:10059000B7160240DC420840918313F7F700B70713
:1005A000002093870700BA978C23DC4293F5F50F60
:1005B00093F707083357B50099E3293E2A8718C0F7
:1005C000EDB45C43B777DC02938707C0C9B701A0DD
:1005D0009701002093818124138181FE170500007B
:1005E0001305852C970500209385C5A117060020CB
:1005F0001306C6A263FAC5008322050023A0550096
:1006000011059105E3EAC5FE17050020130505A1B4
:100610009385C1806377B500232005001105E36D44
:10062000B5FEB722000093820288739002308D429B
:1006300073904280970200009382C29C93E2320042
:1006400073905230EFF03FE497020000938282DD16
:100650007390123473002030944593F7060193F29F
:10066000F60081C7DC41B3E2F20083D3050093F7C3
:10067000F30FA5C303230500611122C226C08147E1
:10068000130480029304800405473316F70033F700
:10069000C3006312E602939527003D473317B70066
:1006A0001347F7FF33736700B395B20033E3650078
:1006B000639D860050C985072147E397E7FC1244F4
:1006C00023206500824421018280E39696FE10C9B2
:1006D000DDB7828008456D8D3335A000828019C258
:1006E0000CC982804CC98280B707002023AEA700C6
:1006F0008280B707002083A6C70185471821639031
:10070000F6021C31639CD7023C219A0793E707F855
:10071000B7E600E093F7F70FBA962380F6408546D8
:10072000935757003397E600544189CE93870704C7
:100730008A07B7E600E0B69798C38280EDF33C21C4
:100740009A07F9B793870706E5B7371702401C43A6
:100750000E0593F777F05D8D08C3828099C5371732
:1007600002401C4F5D8D08CF8280B7170240984F22
:100770001345F5FF798D88CF828099C537170240E0
:100780005C4F5D8D48CF8280B7170240D84F13452C
:10079000F5FF798DC8CF82801E21373701401307BE
:1007A00007C0C207C1836306E50037070040631630
:1007B000E500BA2193F7F7F8D98FFA2193F7F7CF2D
:1007C000C207C183D98F1EA1DE215EB59E211EB551
:1007D000B7370140938707C06314F5009C251EB905
:1007E00085475EA982801E2189C593E717001EA157
:1007F0008280C207C183F99BC207C183CDBF5E253A
:1008000001C6DD8D4EA5828093C5F5FFFD8DDDBF50
:100810001E294A25ED8F4205418189C76D8D3335EB
:10082000A00082800145828093C5F5FFC205C18189
:100830000EA98280EFF2DF86B707002003A507012B
:10084000B7157A0093850520EFF0DF881375F50F53
:100850002385A18093175500898F8A073E950E0541
:100860002394A1806FF07F84EFF29F8337F400E040
:100870005C40AA85F99B5CC003D58180EFF09F8323
:1008800008C8232404001C4093E717001CC0B7F7D6
:1008900000E0D843058B75DF9843799B98C36FF0D0
:0408A000DF800000F5
:1008A40001020304050607080102030405060708FC
:0808B400006CDC0200000000F2
:00000001FF
